:040000008031102813
:100008007E14803140017F08F0008231042A700894
:100018004001FF007E10090080311228FC012030C9
:10002800840000308500433081315B217E1040011F
:100038008031A9284E010F1C642843010C08F600E2
:100048007608FB004E010F10430190137C08803A9C
:10005800403E031C552860287B08F60076084001BE
:10006800A20060287B08F600F70176084001A0008E
:1000780077084A287B08F600F70140012008F900B4
:10008800F80176087804A00077087904A1006028B0
:100098007B08F6007C08233E8600870176088100ED
:1000A80060287C08FD3A03193028033A03193628DA
:1000B800013A03193E284C280130F6007608FC075F
:1000C8007E01BF1F0800902840012108F200200887
:1000D800F1002330F6007608F3008031E320803108
:1000E8009C2840012108F2002008F10081314D21AF
:1000F80080319C28FA0106307A0203188E280230D3
:1001080040019A060130F6007608FA0706307A02AE
:10011800031C832801009C2840012208103A031977
:100128007528303A03196828103A03197E289C2844
:1001380040018C1F9C28073043018C00FD30F600DD
:100148007608FC007E01BF1308008B017E01B80110
:10015800C301CE01400194109A1081313D218031B4
:10016800003A0319CC284001E40104306402031862
:10017800C72802309A060130E3006308E407043018
:100188006402031CBD281F307F01ED008231002A64
:100198004001E501023065020318DC2802309A06A6
:1001A8000130E3006308E50702306502031CD2282A
:1001B80081311721803180311E208031DF282430A1
:1001C80050019E00F50120307502031815297108A9
:1001D8009A0072089B001F30750603199E12753528
:1001E8007307F40074088600870101089C00031453
:1001F800750D7307F40074088600870101089D00D7
:1002080055309F00AA309F009E140130F10700303E
:10021800F23D0130F4007408F50720307502031C24
:10022800EB281E11080007307D01C7001330C500F8
:100238001430C60016307E01A500400192179415AF
:100248001416941243011008F039043890008F13E3
:1002580010120F1712129016101390137E01BD176B
:100268004E010F107E01BF13FD30F1007108FC0034
:100278000800023050019B009A0101309E001C0AC0
:100288003F3003191D0603194B29013008000030BF
:100298000800710850019A0072089B0094309E0073
:1002A80055309F00AA309F009E141E11080064005C
:0A02B80080010131890B5C2900343C
:020000040001F9
:0A000E008C3FFF3F9F3FF71FFF3FAD
:00000001FF
